{
  "_format": "hh-sol-artifact-1",
  "contractName": "CertificateRegistry",
  "sourceName": "contracts/CertificateRegistry.sol",
  "abi": [
    {
      "inputs": [
        {
          "internalType": "string",
          "name": "_issuerName",
          "type": "string"
        }
      ],
      "stateMutability": "nonpayable",
      "type": "constructor"
    },
    {
      "anonymous": false,
      "inputs": [
        {
          "indexed": true,
          "internalType": "string",
          "name": "certificateId",
          "type": "string"
        },
        {
          "indexed": true,
          "internalType": "bytes32",
          "name": "documentHash",
          "type": "bytes32"
        },
        {
          "indexed": false,
          "internalType": "uint256",
          "name": "issueTimestamp",
          "type": "uint256"
        },
        {
          "indexed": false,
          "internalType": "address",
          "name": "issuedBy",
          "type": "address"
        }
      ],
      "name": "CertificateIssued",
      "type": "event"
    },
    {
      "anonymous": false,
      "inputs": [
        {
          "indexed": true,
          "internalType": "string",
          "name": "certificateId",
          "type": "string"
        },
        {
          "indexed": false,
          "internalType": "uint256",
          "name": "revokeTimestamp",
          "type": "uint256"
        },
        {
          "indexed": false,
          "internalType": "address",
          "name": "revokedBy",
          "type": "address"
        }
      ],
      "name": "CertificateRevoked",
      "type": "event"
    },
    {
      "anonymous": false,
      "inputs": [
        {
          "indexed": false,
          "internalType": "string",
          "name": "oldName",
          "type": "string"
        },
        {
          "indexed": false,
          "internalType": "string",
          "name": "newName",
          "type": "string"
        },
        {
          "indexed": false,
          "internalType": "uint256",
          "name": "timestamp",
          "type": "uint256"
        }
      ],
      "name": "IssuerNameUpdated",
      "type": "event"
    },
    {
      "inputs": [],
      "name": "admin",
      "outputs": [
        {
          "internalType": "address",
          "name": "",
          "type": "address"
        }
      ],
      "stateMutability": "view",
      "type": "function"
    },
    {
      "inputs": [
        {
          "internalType": "string",
          "name": "_certificateId",
          "type": "string"
        }
      ],
      "name": "certificateExistsCheck",
      "outputs": [
        {
          "internalType": "bool",
          "name": "",
          "type": "bool"
        }
      ],
      "stateMutability": "view",
      "type": "function"
    },
    {
      "inputs": [
        {
          "internalType": "string",
          "name": "_certificateId",
          "type": "string"
        }
      ],
      "name": "getCertificateHash",
      "outputs": [
        {
          "internalType": "bytes32",
          "name": "",
          "type": "bytes32"
        }
      ],
      "stateMutability": "view",
      "type": "function"
    },
    {
      "inputs": [
        {
          "internalType": "uint256",
          "name": "_offset",
          "type": "uint256"
        },
        {
          "internalType": "uint256",
          "name": "_limit",
          "type": "uint256"
        }
      ],
      "name": "getCertificateIds",
      "outputs": [
        {
          "internalType": "string[]",
          "name": "",
          "type": "string[]"
        }
      ],
      "stateMutability": "view",
      "type": "function"
    },
    {
      "inputs": [],
      "name": "getTotalCertificates",
      "outputs": [
        {
          "internalType": "uint256",
          "name": "",
          "type": "uint256"
        }
      ],
      "stateMutability": "view",
      "type": "function"
    },
    {
      "inputs": [
        {
          "internalType": "string",
          "name": "_certificateId",
          "type": "string"
        }
      ],
      "name": "isCertificateValid",
      "outputs": [
        {
          "internalType": "bool",
          "name": "",
          "type": "bool"
        }
      ],
      "stateMutability": "view",
      "type": "function"
    },
    {
      "inputs": [
        {
          "internalType": "string",
          "name": "_certificateId",
          "type": "string"
        },
        {
          "internalType": "bytes32",
          "name": "_documentHash",
          "type": "bytes32"
        }
      ],
      "name": "issueCertificate",
      "outputs": [
        {
          "internalType": "bool",
          "name": "success",
          "type": "bool"
        }
      ],
      "stateMutability": "nonpayable",
      "type": "function"
    },
    {
      "inputs": [],
      "name": "issuerName",
      "outputs": [
        {
          "internalType": "string",
          "name": "",
          "type": "string"
        }
      ],
      "stateMutability": "view",
      "type": "function"
    },
    {
      "inputs": [
        {
          "internalType": "string",
          "name": "_certificateId",
          "type": "string"
        }
      ],
      "name": "reactivateCertificate",
      "outputs": [
        {
          "internalType": "bool",
          "name": "success",
          "type": "bool"
        }
      ],
      "stateMutability": "nonpayable",
      "type": "function"
    },
    {
      "inputs": [
        {
          "internalType": "string",
          "name": "_certificateId",
          "type": "string"
        }
      ],
      "name": "revokeCertificate",
      "outputs": [
        {
          "internalType": "bool",
          "name": "success",
          "type": "bool"
        }
      ],
      "stateMutability": "nonpayable",
      "type": "function"
    },
    {
      "inputs": [],
      "name": "totalCertificates",
      "outputs": [
        {
          "internalType": "uint256",
          "name": "",
          "type": "uint256"
        }
      ],
      "stateMutability": "view",
      "type": "function"
    },
    {
      "inputs": [
        {
          "internalType": "address",
          "name": "_newAdmin",
          "type": "address"
        }
      ],
      "name": "transferAdmin",
      "outputs": [],
      "stateMutability": "nonpayable",
      "type": "function"
    },
    {
      "inputs": [
        {
          "internalType": "string",
          "name": "_newIssuerName",
          "type": "string"
        }
      ],
      "name": "updateIssuerName",
      "outputs": [],
      "stateMutability": "nonpayable",
      "type": "function"
    },
    {
      "inputs": [
        {
          "internalType": "string",
          "name": "_certificateId",
          "type": "string"
        }
      ],
      "name": "verifyCertificate",
      "outputs": [
        {
          "internalType": "string",
          "name": "certId",
          "type": "string"
        },
        {
          "internalType": "bytes32",
          "name": "docHash",
          "type": "bytes32"
        },
        {
          "internalType": "uint256",
          "name": "issueTime",
          "type": "uint256"
        },
        {
          "internalType": "bool",
          "name": "valid",
          "type": "bool"
        }
      ],
      "stateMutability": "view",
      "type": "function"
    },
    {
      "inputs": [
        {
          "internalType": "bytes32",
          "name": "_documentHash",
          "type": "bytes32"
        }
      ],
      "name": "verifyCertificateByHash",
      "outputs": [
        {
          "internalType": "string",
          "name": "certId",
          "type": "string"
        },
        {
          "internalType": "bytes32",
          "name": "docHash",
          "type": "bytes32"
        },
        {
          "internalType": "uint256",
          "name": "issueTime",
          "type": "uint256"
        },
        {
          "internalType": "bool",
          "name": "valid",
          "type": "bool"
        }
      ],
      "stateMutability": "view",
      "type": "function"
    }
  ],
  "bytecode": "0x608060405234801561001057600080fd5b5060405161185e38038061185e83398101604081905261002f916100c4565b60008151116100845760405162461bcd60e51b815260206004820152601b60248201527f497373756572206e616d652063616e6e6f7420626520656d7074790000000000604482015260640160405180910390fd5b600080546001600160a01b0319163317905560016100a28282610219565b505060006002556102d7565b634e487b7160e01b600052604160045260246000fd5b6000602082840312156100d657600080fd5b81516001600160401b038111156100ec57600080fd5b8201601f810184136100fd57600080fd5b80516001600160401b03811115610116576101166100ae565b604051601f8201601f19908116603f011681016001600160401b0381118282101715610144576101446100ae565b60405281815282820160200186101561015c57600080fd5b60005b8281101561017b5760208185018101518383018201520161015f565b50600091810160200191909152949350505050565b600181811c908216806101a457607f821691505b6020821081036101c457634e487b7160e01b600052602260045260246000fd5b50919050565b601f82111561021457806000526020600020601f840160051c810160208510156101f15750805b601f840160051c820191505b8181101561021157600081556001016101fd565b50505b505050565b81516001600160401b03811115610232576102326100ae565b610246816102408454610190565b846101ca565b6020601f82116001811461027a57600083156102625750848201515b600019600385901b1c1916600184901b178455610211565b600084815260208120601f198516915b828110156102aa578785015182556020948501946001909201910161028a565b50848210156102c85786840151600019600387901b60f8161c191681555b50505050600190811b01905550565b611578806102e66000396000f3fe608060405234801561001057600080fd5b50600436106100f55760003560e01c806362c985c3116100975780638b23d875116100665780638b23d875146101dd578063dbcfd1e214610200578063e8ddea1214610213578063f851a4401461023357600080fd5b806362c985c31461019a57806375829def146101ad5780637843bb79146101c2578063810838b2146101ca57600080fd5b8063286b9c62116100d3578063286b9c62146101565780632e9868f81461016957806335fd44c41461017e578063596b772f1461019157600080fd5b80630499ba6f146100fa578063142e154214610120578063195098d014610143575b600080fd5b61010d6101083660046110e4565b61025e565b6040519081526020015b60405180910390f35b61013361012e3660046110e4565b6102dd565b6040519015158152602001610117565b6101336101513660046110e4565b61044c565b6101336101643660046110e4565b6104c5565b6101716104f9565b6040516101179190611171565b61013361018c3660046110e4565b610587565b61010d60025481565b6101336101a836600461118b565b6106ad565b6101c06101bb3660046111d0565b6109ae565b005b60025461010d565b6101c06101d83660046110e4565b610aaf565b6101f06101eb3660046110e4565b610c08565b60405161011794939291906111f9565b6101f061020e36600461122a565b610d79565b610226610221366004611243565b610e8e565b6040516101179190611265565b600054610246906001600160a01b031681565b6040516001600160a01b039091168152602001610117565b60008160038160405161027191906112ca565b9081526040519081900360200190206003015460ff610100909104166102b25760405162461bcd60e51b81526004016102a9906112e6565b60405180910390fd5b6003836040516102c291906112ca565b90815260200160405180910390206001015491505b50919050565b600080546001600160a01b031633146103085760405162461bcd60e51b81526004016102a99061131d565b8160038160405161031991906112ca565b9081526040519081900360200190206003015460ff610100909104166103515760405162461bcd60e51b81526004016102a9906112e6565b60038360405161036191906112ca565b9081526040519081900360200190206003015460ff166103c35760405162461bcd60e51b815260206004820152601b60248201527f436572746966696361746520616c7265616479207265766f6b6564000000000060448201526064016102a9565b60006003846040516103d591906112ca565b908152604051908190036020018120600301805492151560ff19909316929092179091556104049084906112ca565b60408051918290038220428352336020840152917f70fa7d9a7bf3ecf0a748c340798d2365a708483be4c68239e1f2873a77d85eed910160405180910390a250600192915050565b60008160038160405161045f91906112ca565b9081526040519081900360200190206003015460ff610100909104166104975760405162461bcd60e51b81526004016102a9906112e6565b6003836040516104a791906112ca565b9081526040519081900360200190206003015460ff16915050919050565b60006003826040516104d791906112ca565b9081526040519081900360200190206003015460ff6101009091041692915050565b600180546105069061135f565b80601f01602080910402602001604051908101604052809291908181526020018280546105329061135f565b801561057f5780601f106105545761010080835404028352916020019161057f565b820191906000526020600020905b81548152906001019060200180831161056257829003601f168201915b505050505081565b600080546001600160a01b031633146105b25760405162461bcd60e51b81526004016102a99061131d565b816003816040516105c391906112ca565b9081526040519081900360200190206003015460ff610100909104166105fb5760405162461bcd60e51b81526004016102a9906112e6565b60038360405161060b91906112ca565b9081526040519081900360200190206003015460ff161561066e5760405162461bcd60e51b815260206004820152601c60248201527f436572746966696361746520697320616c72656164792076616c69640000000060448201526064016102a9565b600160038460405161068091906112ca565b908152604051908190036020019020600301805491151560ff199092169190911790556001915050919050565b600080546001600160a01b031633146106d85760405162461bcd60e51b81526004016102a99061131d565b60008351116107295760405162461bcd60e51b815260206004820152601e60248201527f43657274696669636174652049442063616e6e6f7420626520656d707479000060448201526064016102a9565b816107765760405162461bcd60e51b815260206004820152601d60248201527f446f63756d656e7420686173682063616e6e6f7420626520656d70747900000060448201526064016102a9565b60038360405161078691906112ca565b9081526040519081900360200190206003015460ff61010090910416156107ef5760405162461bcd60e51b815260206004820152601a60248201527f436572746966696361746520616c72656164792065786973747300000000000060448201526064016102a9565b600082815260046020526040902080546108089061135f565b15905061084d5760405162461bcd60e51b81526020600482015260136024820152724861736820616c72656164792065786973747360681b60448201526064016102a9565b6040805160a081018252848152602081018490524281830152600160608201819052608082015290516003906108849086906112ca565b908152604051908190036020019020815181906108a190826113e2565b506020828101516001830155604080840151600284015560608401516003909301805460809095015115156101000261ff00199415159490941661ffff19909516949094179290921790925560008481526004909252902061090384826113e2565b50600580546001810182556000919091527f036b6384b5eca791c62761152d0c79bb0604c104a5fb6f4eb0703f3154bb3db00161094084826113e2565b5060028054906000610951836114b7565b9190505550818360405161096591906112ca565b60408051918290038220428352336020840152917f247456acd2fe0452d8426185bb3153c578b1ca649fb88154438cd16eedc5bfba910160405180910390a35060015b92915050565b6000546001600160a01b031633146109d85760405162461bcd60e51b81526004016102a99061131d565b6001600160a01b038116610a205760405162461bcd60e51b815260206004820152600f60248201526e496e76616c6964206164647265737360881b60448201526064016102a9565b6000546001600160a01b0390811690821603610a8d5760405162461bcd60e51b815260206004820152602660248201527f4e65772061646d696e206973207468652073616d652061732063757272656e746044820152651030b236b4b760d11b60648201526084016102a9565b600080546001600160a01b0319166001600160a01b0392909216919091179055565b6000546001600160a01b03163314610ad95760405162461bcd60e51b81526004016102a99061131d565b6000815111610b2a5760405162461bcd60e51b815260206004820152601b60248201527f497373756572206e616d652063616e6e6f7420626520656d707479000000000060448201526064016102a9565b600060018054610b399061135f565b80601f0160208091040260200160405190810160405280929190818152602001828054610b659061135f565b8015610bb25780601f10610b8757610100808354040283529160200191610bb2565b820191906000526020600020905b815481529060010190602001808311610b9557829003601f168201915b505050505090508160019081610bc891906113e2565b507f6f1251f04fdd6b65650b772f29df4bbb7e099cb53bb225a7f658977933a170d0818342604051610bfc939291906114d0565b60405180910390a15050565b6060600080600084600381604051610c2091906112ca565b9081526040519081900360200190206003015460ff61010090910416610c585760405162461bcd60e51b81526004016102a9906112e6565b6000600387604051610c6a91906112ca565b90815260200160405180910390206040518060a0016040529081600082018054610c939061135f565b80601f0160208091040260200160405190810160405280929190818152602001828054610cbf9061135f565b8015610d0c5780601f10610ce157610100808354040283529160200191610d0c565b820191906000526020600020905b815481529060010190602001808311610cef57829003601f168201915b50505091835250506001820154602080830191909152600283015460408084019190915260039093015460ff8082161515606080860191909152610100909204161515608090930192909252835190840151928401519390910151909a9199509197509095509350505050565b6060600080600080600460008781526020019081526020016000208054610d9f9061135f565b80601f0160208091040260200160405190810160405280929190818152602001828054610dcb9061135f565b8015610e185780601f10610ded57610100808354040283529160200191610e18565b820191906000526020600020905b815481529060010190602001808311610dfb57829003601f168201915b505050505090506000815111610e7c5760405162461bcd60e51b815260206004820152602360248201527f4365727469666963617465206e6f7420666f756e6420666f72207468697320686044820152620c2e6d60eb1b60648201526084016102a9565b6000600382604051610c6a91906112ca565b6005546060908310610ed95760405162461bcd60e51b81526020600482015260146024820152734f6666736574206f7574206f6620626f756e647360601b60448201526064016102a9565b6000610ee58385611506565b600554909150811115610ef757506005545b6000610f038583611519565b905060008167ffffffffffffffff811115610f2057610f2061103f565b604051908082528060200260200182016040528015610f5357816020015b6060815260200190600190039081610f3e5790505b50905060005b82811015611035576005610f6d8289611506565b81548110610f7d57610f7d61152c565b906000526020600020018054610f929061135f565b80601f0160208091040260200160405190810160405280929190818152602001828054610fbe9061135f565b801561100b5780601f10610fe05761010080835404028352916020019161100b565b820191906000526020600020905b815481529060010190602001808311610fee57829003601f168201915b50505050508282815181106110225761102261152c565b6020908102919091010152600101610f59565b5095945050505050565b634e487b7160e01b600052604160045260246000fd5b600082601f83011261106657600080fd5b813567ffffffffffffffff8111156110805761108061103f565b604051601f8201601f19908116603f0116810167ffffffffffffffff811182821017156110af576110af61103f565b6040528181528382016020018510156110c757600080fd5b816020850160208301376000918101602001919091529392505050565b6000602082840312156110f657600080fd5b813567ffffffffffffffff81111561110d57600080fd5b61111984828501611055565b949350505050565b60005b8381101561113c578181015183820152602001611124565b50506000910152565b6000815180845261115d816020860160208601611121565b601f01601f19169290920160200192915050565b6020815260006111846020830184611145565b9392505050565b6000806040838503121561119e57600080fd5b823567ffffffffffffffff8111156111b557600080fd5b6111c185828601611055565b95602094909401359450505050565b6000602082840312156111e257600080fd5b81356001600160a01b038116811461118457600080fd5b60808152600061120c6080830187611145565b60208301959095525060408101929092521515606090910152919050565b60006020828403121561123c57600080fd5b5035919050565b6000806040838503121561125657600080fd5b50508035926020909101359150565b6000602082016020835280845180835260408501915060408160051b86010192506020860160005b828110156112be57603f198786030184526112a9858351611145565b9450602093840193919091019060010161128d565b50929695505050505050565b600082516112dc818460208701611121565b9190910192915050565b6020808252601a908201527f436572746966696361746520646f6573206e6f74206578697374000000000000604082015260600190565b60208082526022908201527f4f6e6c792061646d696e2063616e20706572666f726d2074686973206163746960408201526137b760f11b606082015260800190565b600181811c9082168061137357607f821691505b6020821081036102d757634e487b7160e01b600052602260045260246000fd5b601f8211156113dd57806000526020600020601f840160051c810160208510156113ba5750805b601f840160051c820191505b818110156113da57600081556001016113c6565b50505b505050565b815167ffffffffffffffff8111156113fc576113fc61103f565b6114108161140a845461135f565b84611393565b6020601f821160018114611444576000831561142c5750848201515b600019600385901b1c1916600184901b1784556113da565b600084815260208120601f198516915b828110156114745787850151825560209485019460019092019101611454565b50848210156114925786840151600019600387901b60f8161c191681555b50505050600190811b01905550565b634e487b7160e01b600052601160045260246000fd5b6000600182016114c9576114c96114a1565b5060010190565b6060815260006114e36060830186611145565b82810360208401526114f58186611145565b915050826040830152949350505050565b808201808211156109a8576109a86114a1565b818103818111156109a8576109a86114a1565b634e487b7160e01b600052603260045260246000fdfea26469706673582212208259288d3deebf29bfefbd4ad03e89cd343e5c8486691847bc3fec235e42e20a64736f6c634300081c0033",
  "linkReferences": {},
  "deployedLinkReferences": {}
}