{
  "_format": "hh-sol-artifact-1",
  "contractName": "SimpleStorage",
  "sourceName": "contracts/SimpleStorage.sol",
  "abi": [
    {
      "inputs": [
        {
          "internalType": "uint256",
          "name": "initialValue",
          "type": "uint256"
        }
      ],
      "stateMutability": "nonpayable",
      "type": "constructor"
    },
    {
      "anonymous": false,
      "inputs": [
        {
          "indexed": true,
          "internalType": "uint256",
          "name": "newValue",
          "type": "uint256"
        },
        {
          "indexed": true,
          "internalType": "address",
          "name": "setter",
          "type": "address"
        },
        {
          "indexed": false,
          "internalType": "uint256",
          "name": "timestamp",
          "type": "uint256"
        }
      ],
      "name": "DataStored",
      "type": "event"
    },
    {
      "anonymous": false,
      "inputs": [
        {
          "indexed": true,
          "internalType": "address",
          "name": "previousOwner",
          "type": "address"
        },
        {
          "indexed": true,
          "internalType": "address",
          "name": "newOwner",
          "type": "address"
        }
      ],
      "name": "OwnershipTransferred",
      "type": "event"
    },
    {
      "inputs": [],
      "name": "decrement",
      "outputs": [],
      "stateMutability": "nonpayable",
      "type": "function"
    },
    {
      "inputs": [],
      "name": "get",
      "outputs": [
        {
          "internalType": "uint256",
          "name": "",
          "type": "uint256"
        }
      ],
      "stateMutability": "view",
      "type": "function"
    },
    {
      "inputs": [],
      "name": "increment",
      "outputs": [],
      "stateMutability": "nonpayable",
      "type": "function"
    },
    {
      "inputs": [],
      "name": "owner",
      "outputs": [
        {
          "internalType": "address",
          "name": "",
          "type": "address"
        }
      ],
      "stateMutability": "view",
      "type": "function"
    },
    {
      "inputs": [
        {
          "internalType": "uint256",
          "name": "newValue",
          "type": "uint256"
        }
      ],
      "name": "set",
      "outputs": [],
      "stateMutability": "nonpayable",
      "type": "function"
    },
    {
      "inputs": [
        {
          "internalType": "address",
          "name": "newOwner",
          "type": "address"
        }
      ],
      "name": "transferOwnership",
      "outputs": [],
      "stateMutability": "nonpayable",
      "type": "function"
    }
  ],
  "bytecode": "0x6080604052348015600f57600080fd5b5060405161044d38038061044d833981016040819052602c916080565b600180546001600160a01b03191633908117909155600082905560405142815282907f378b68e2c3e1055819a141af15c50ced2dd34f539d158fc619f35eed69fb42079060200160405180910390a3506098565b600060208284031215609157600080fd5b5051919050565b6103a6806100a76000396000f3fe608060405234801561001057600080fd5b50600436106100625760003560e01c80632baeceb71461006757806360fe47b1146100715780636d4ce63c146100845780638da5cb5b1461009a578063d09de08a146100c5578063f2fde38b146100cd575b600080fd5b61006f6100e0565b005b61006f61007f3660046102e5565b610188565b6000546040519081526020015b60405180910390f35b6001546100ad906001600160a01b031681565b6040516001600160a01b039091168152602001610091565b61006f6101c7565b61006f6100db3660046102fe565b6101d9565b60008054116101365760405162461bcd60e51b815260206004820152601a60248201527f56616c75652063616e6e6f7420676f2062656c6f77207a65726f00000000000060448201526064015b60405180910390fd5b60016000808282546101489190610344565b90915550506000546040514281523391907f378b68e2c3e1055819a141af15c50ced2dd34f539d158fc619f35eed69fb42079060200160405180910390a3565b6000819055604051428152339082907f378b68e2c3e1055819a141af15c50ced2dd34f539d158fc619f35eed69fb42079060200160405180910390a350565b6001600080828254610148919061035d565b6001546001600160a01b0316331461023d5760405162461bcd60e51b815260206004820152602160248201527f4f6e6c79206f776e65722063616e2063616c6c20746869732066756e6374696f6044820152603760f91b606482015260840161012d565b6001600160a01b0381166102935760405162461bcd60e51b815260206004820181905260248201527f4e6577206f776e65722063616e6e6f74206265207a65726f2061646472657373604482015260640161012d565b600180546001600160a01b038381166001600160a01b0319831681179093556040519116919082907f8be0079c531659141344cd1fd0a4f28419497f9722a3daafe3b4186f6b6457e090600090a35050565b6000602082840312156102f757600080fd5b5035919050565b60006020828403121561031057600080fd5b81356001600160a01b038116811461032757600080fd5b9392505050565b634e487b7160e01b600052601160045260246000fd5b818103818111156103575761035761032e565b92915050565b808201808211156103575761035761032e56fea2646970667358221220db64608fd91ca991e07e3a8b57aeb22aef06823b37f4daca39a7586c0d74d53d64736f6c634300081c0033",
  "linkReferences": {},
  "deployedLinkReferences": {}
}